:100000000C9461000C9473000C9473000C947300B6
:100010000C9473000C9473000C9473000C94730094
:100020000C9473000C9473000C9473000C94730084
:100030000C9473000C9473000C9473000C94730074
:100040000C9451010C9473000C9473000C94730085
:100050000C9473000C9473000C9473000C94730054
:100060000C9473000C947300000000002300260021
:10007000290000000000240027002A0000000000E2
:10008000250028002B0004040404040404040202D4
:100090000202020203030303030301020408102007
:1000A0004080010204081020010204081020000012
:1000B0000008000201000003040700000000000027
:1000C000000011241FBECFEFD8E0DEBFCDBF21E07E
:1000D000A0E0B1E001C01D92A331B207E1F70E9498
:1000E0009B010C947F020C940000833081F028F473
:1000F000813099F08230A9F008958730A9F08830D6
:10010000C9F08430B1F4809180008F7D03C080916C
:1001100080008F7780938000089584B58F7784BDA9
:10012000089584B58F7DFBCF8091B0008F77809349
:10013000B00008958091B0008F7DF9CF1F93CF93C9
:10014000DF93E7EBF0E09491E3EAF0E0D491EFE89D
:10015000F0E0C491CC23B9F0182F992319F0892F1E
:100160000E947500EC2FF0E0EE0FFF1FE458FF4FE8
:10017000A591B4918FB7F894EC91111108C0D09566
:10018000DE23DC938FBFDF91CF911F910895DE2B8B
:10019000F8CFCF93DF9390E0FC01E656FF4F249118
:1001A0008A579F4FFC0184918823D1F090E0880FFB
:1001B000991FFC01EE58FF4FA591B491FC01E45842
:1001C000FF4FC591D49161110EC09FB7F8948C91E7
:1001D000E22FE0958E238C932881E223E8839FBF52
:1001E000DF91CF9108958FB7F894EC91E22BEC93C7
:1001F0008FBFF6CFCF93DF93EC0161E089E00E94DF
:10020000C900209729F480E0DF91CF910C949E00E3
:10021000CF3FD10511F481E0F7CFE7EBF0E0E491B7
:10022000E33029F140F4E130B1F0E230D9F0C038E8
:10023000D1058CF7E8CFE73021F1E83051F1E43017
:10024000B1F780918000806280938000D0938B0012
:10025000C0938A0004C084B5806884BDC7BDDF91A7
:10026000CF91089584B5806284BDC8BDF8CF8091D8
:100270008000806880938000D0938900C0938800BC
:10028000EECF8091B00080688093B000C093B3003F
:10029000E6CF8091B00080628093B000C093B4003C
:1002A000DECF1F920F920FB60F9211242F933F9320
:1002B0008F939F93AF93BF9380910F019091100103
:1002C000A0911101B091120130910E0123E0230F92
:1002D0002D3758F50196A11DB11D20930E01809375
:1002E0000F0190931001A0931101B093120180911E
:1002F0000A0190910B01A0910C01B0910D010196A2
:10030000A11DB11D80930A0190930B01A0930C01D4
:10031000B0930D01BF91AF919F918F913F912F911C
:100320000F900FBE0F901F90189526E8230F02968E
:10033000A11DB11DD2CF789484B5826084BD84B5EF
:10034000816084BD85B5826085BD85B5816085BDD0
:1003500080916E00816080936E0010928100809188
:100360008100826080938100809181008160809310
:100370008100809180008160809380008091B10035
:1003800084608093B1008091B00081608093B00060
:1003900080917A00846080937A0080917A008260F4
:1003A00080937A0080917A00816080937A008091B6
:1003B0007A00806880937A001092C10061E089E041
:1003C0000E94C90060E082E00E94C90080910001A3
:1003D000909101010E94FA00C0EBD0E00CE910E01E
:1003E00098E8E92E90E0F92E20E0C22E20E0D22EEF
:1003F000FE018491F801A490F701B490BB2009F4A8
:1004000076C081110E947500EB2DF0E0EE0FFF1F0A
:10041000E859FF4FA591B4918C91A82291E080E01A
:1004200009F490E0A92EB82E80910801909109015D
:100430008A159B0599F02FB7F89480910F01909140
:100440001001A0911101B09112012FBF80930401FE
:1004500090930501A0930601B09307012FB7F8947C
:1004600080910F0190911001A0911101B0911201A2
:100470002FBF4091040150910501609106017091D8
:100480000701841B950BA60BB70BC397A105B105FC
:1004900018F180910201909103018A159B05E1F00A
:1004A000B0920301A0920201F1E0AF16B104A1F4F1
:1004B0008091000190910101805C9F4F8F3F9105D9
:1004C00009F0C4F490930101809300018091000130
:1004D000909101010E94FA00B0920901A0920801D6
:1004E000C114D10409F484CF0E94000081CFB12C43
:1004F000A12C9ACF1092010110920001E7CFF8943D
:02050000FFCF2B
:00000001FF
